:100000000C9466030C9483030C9483030C94830375
:100010000C9483030C9483030C9483030C94830348
:100020000C9483030C9483030C947F240C9451252B
:100030000C94CC1A0C9483030C9483030C948303C8
:100040000C9483030C9483030C9483030C94830318
:100050000C9483030C94341B0C9483030C9483033F
:100060000C9483030C9483030C9483030C948303F8
:100070000C9483030C9483030C9483030C948303E8
:100080000C9483030C9483030C9483030C948303D8
:100090000C9483030C9483030C9483030C948303C8
:1000A0000C9483030C9483030C948303DB03DE031F
:1000B000E103E403E703EA03ED0309070E0718076A
:1000C0000C07110716071407720874087F087608D2
:1000D00078087A087C087E088108830885089008DB
:1000E000870889088B088D088F0892081E101E103B
:1000F000501050108710A71010126E12E9106E12D7
:100100009611961107126E126E126812A311A311A6
:10011000A311A311A311A311A311A311A311A3113F
:10012000A311A311A311A311A311A311B411C11100
:10013000C811CF11D911FB12FB120D130D130413AB
:100140000D130D130D13FB12FB1209130D130D13D9
:100150000913BE25E525D726E525D72631265426C1
:10016000D726AA26B9266572676F646F785F657AAD
:100170002F343266623936383666626436666336E4
:100180006462363538204020302E362E3232302D03
:10019000362D673438346338352D646972747900CC
:1001A0000000F0A129002B000068E10000610000C0
:1001B0001E00140004001D0000644D001F001A0002
:1001C00016001B00E364025120000800070006002F
:1001D00050002C0021001500090019004F004A00B2
:1001E000220017000A000500000065642300035187
:1001F000000003510000A60024006A00000069000E
:100200000000900025001C000B0011000000910070
:10021000260018000D00100052004B0027000C00B3
:100220000E00360051002C00340012000F00370081
:10023000010002512E0013003300540002514E0001
:100240002A0031002800E5000151000029000100CA
:10025000010001000100000001001E022002220234
:100260000100010001001F022102230201005600CB
:1002700001002F0226022F0001005700010030026A
:100280002702300001000100010031023500350273
:100290000000010001000100000001000000010059
:1002A00001000100000001000000010001005200F7
:1002B00051002402000001000100240021001E0062
:1002C000010001000100250022001F00270054004A
:1002D000340226002300200001005500570056007C
:1002E00055003100330201005600010001000100F9
:1002F00001000000010001000100010001000000F8
:100300000100F400F2000100500001000100F000C3
:10031000F1005200510001000100F500F30001005E
:100320004F00010001000100010001000100010077
:1003300001000100010001000000010001000100B6
:10034000000001000000A600010001000000010003
:100350000000AC0001000100010001000000AB0042
:100360000100F400F20001005000A9000100F000BB
:10037000F10052005100AE000100F500F300AB00A7
:100380004F00010001000100010001000100AA006E
:1003900001000100AE0001000100000001000100A9
:1003A0000100010001000000010001000100010046
:1003B0000100010001000100010001000100010035
:1003C0000100010001000100010001000100010025
:1003D0000100010001000100010001000100010015
:1003E0000000010001000100000001000000010008
:1003F00001000100000001000000010001000100F7
:1004000001000100000001000100010001000100E5
:1004100001000100010001000100010001000100D4
:1004200001000100010001000100010001000100C4
:1004300001000100010001000100010001000100B4
:100440000100000000000000000000002A2B28002E
:100450000000000000000000000000000000002973
:10046000000000002C1E3420212224342627252EB3
:10047000362D3738271E1F202122232425263333EB
:10048000362E37381F0405060708090A0B0C0D0E17
:100490000F101112131415161718191A1B1C1D2FE3
:1004A0003130232D350405060708090A0B0C0D0E03
:1004B0000F101112131415161718191A1B1C1D2FC3
:1004C0003130354C0000000000000000000000004A
:1004D000000000000000000000000000000000001C
:1004E0000000000000010101010101000101010102
:1004F00000000000000000000000000000000100FB
:1005000001000101010101010101010101010101DC
:1005100001010101010101010101010101010100CC
:1005200000000101000000000000000000000000C9
:1005300000000000000000000000000000000001BA
:1005400001010100040330000000160345007200A1
:1005500067006F0044006F007800200045005A00DB
:10056000000016034500720067006F0044006F0032
:100570007800200045005A00000004030904090225
:100580003B00020100A0FA09040000010301010080
:100590000921110100012240000705810308000A1A
:1005A00009040100010300000009211101000122DA
:1005B000C0000705820320000A120110010000009C
:1005C00008EDFE071301000102030105010902A164
:1005D0000185020901A10005091901290515002558
:1005E00001950575018102950175038101050109D8
:1005F0003009311581257F95027508810609381566
:1006000081257F950175088106050C0A3802158140
:10061000257F950175088106C0C005010980A101EB
:1006200085031601002603001A81002A8300751035
:1006300095018100C0050C0901A101850416010086
:10064000269C021A01002A9C02751095018100C0A7
:1006500005010906A1018505050719E029E715002F
:1006600025019508750181020508190129059505DF
:10067000750191029501750391010507190029EF94
:100680001500250195F075018102C005010906A13B
:1006900001050719E029E715002501950875018175
:1006A000029501750881010508190129059505754F
:1006B0000191029501750391010507190029FF15A4
:1006C0000026FF00950675088100C00011241FBE9A
:1006D000CFEFDAE0DEBFCDBF11E0A0E0B1E0EAEF9E
:1006E000FEE402C005900D92A63CB107D9F723E0C5
:1006F000A6ECB1E001C01D92AD34B207E1F70E9453
:10070000A3210C947B270C94000080B38C7080BBD9
:1007100081B3836F81BB089584B1807F84B985B133
:10072000807F85B98AB1837F8AB98BB1837F8BB98A
:100730003E9846980895CF93E82F873090F58091A2
:10074000000190910101892B09F049C0CE2F64E688
:1007500070E080E40E941C059093010180930001E9
:10076000892BD1F464E670E082E10E9473059093D6
:10077000010180930001892B79F481E090E001C0B0
:10078000880FCA95EAF764E670E080950E947305C9
:10079000909301018093000184E690E0CF910C9446
:1007A000C80590E0FC013797E730F105C0F4EA5A3C
:1007B000FF4F0C941F27209A289811C0219A29983E
:1007C0000EC0229A2A980BC0239A2B9808C0529ADE
:1007D0005A9805C0539A5B9802C03E9A4698CF91AA
:1007E0000895089508950C94F203CF93DF930E9427
:1007F0005A0690E090930101809300010E948C03BF
:100800000E948503ABE1B2E027EC31E0E9E2F2E0DF
:100810004EE04E0F11921D9280E090E0E901C80F6A
:10082000D91F1882019686309105C1F72A5F3F4F84
:100830004E13F0CFDF91CF910C9481070E945A069E
:1008400090E090930101809300010E948C030E942C
:100850008503E9E2F2E08EE08E0F11928E13FDCF58
:100860000895CF93DF93E62FF0E0E55EFD4F4081E2
:100870004827808386E0689FF0011124E953FE4FEA
:1008800020E030E080E061E070E050E0AAE0B22FCC
:100890009081992319F09150908307C0EB01022EAB
:1008A00001C0CC0F0A94EAF78C2BEA0102C0D5955F
:1008B000C795BA95E2F7C0FDA0832F5F3F4F3196F1
:1008C0002630310521F7DF91CF910895CF93DF9343
:1008D000D82F873008F040C080910001909101012D
:1008E000892B09F042C064E670E080E40E941C0598
:1008F0009093010180930001892B11F0C0E027C083
:1009000064E670E083E10E94730590930101809397
:100910000001892B99F764E670E081E40E941C05D0
:100920009093010180930001892B41F784E690E0C8
:100930000E94A30597FF05C09093010180930001D9
:10094000DDCFC82FC095109201011092000184E6FE
:1009500090E00E94C8050AC09FB1CFB1C07FC69584
:10096000C6959370C92BC09501C0C0E06D2F8C2F28
:100970000E943104282F2095ED2FF0E0E75DFD4F18
:10098000908192238C23892BDF91CF910895EF9250
:10099000FF920F931F93CF93DF938091000190916B
:1009A0000101892B91F08091C6018F5F8093C60170
:1009B00081110BC00E945A0690E090930101809330
:1009C0000001892B11F40E94EC0589E2E82E82E0F7
:1009D000F82E00E312E0C0E08C2F0E949B03D7E0CA
:1009E000DC0F8D2F0E949B038C2F0E946604F70161
:1009F00081937F018D2F0E946604F80181938F01FE
:100A00000E948C03CF5FC73039F70E948B0781E0CB
:100A1000DF91CF911F910F91FF90EF900895E82FF4
:100A2000F0E0E75DFD4F8081089508951092B900D0
:100A30008CE08093B8000895EF92FF920F931F937C
:100A4000CF93DF93182FEB011092BC0084EA8093C0
:100A5000BC000E94FE1A7C019091BC0097FD0EC064
:100A6000CF3F8FEFD807C1F30E94FE1A8E199F095E
:100A70008C179D0788F38EEF9FEF2EC09091B900E1
:100A8000987F983041F09091B900987F903119F09B
:100A90008FEF9FEF21C01093BB0084E88093BC00D0
:100AA0000E94FE1A8C019091BC0097FD0CC0CF3FB4
:100AB0008FEFD807C1F30E94FE1A801B910B8C1791
:100AC0009D0788F3D8CF8091B900887F883111F0D5
:100AD0008034F1F680E090E0DF91CF911F910F918B
:100AE000FF90EF9008950F931F93CF93DF93EB0147
:100AF0008093BB0084E88093BC000E94FE1A8C01A6
:100B00009091BC0097FD0EC0CF3F8FEFD807C1F387
:100B10000E94FE1A801B910B8C179D0788F38EEFA5
:100B20009FEF0CC02091B900287F81E090E028322F
:100B300011F480E090E0919581959109DF91CF913A
:100B40001F910F9108950F931F93CF93DF93EC01A3
:100B500084E88093BC000E94FE1A8C019091BC0036
:100B600097FD0EC0CF3F8FEFD807C1F30E94FE1A4A
:100B7000801B910B8C179D0788F38EEF9FEF03C0AE
:100B80008091BB0090E0DF91CF911F910F9108956C
:100B90000F931F93CF93DF93EC0184E98093BC0004
:100BA0000E94FE1A8C019091BC0094FF0EC0CF3FB2
:100BB0008FEFD807C1F30E94FE1A801B910B8C1790
:100BC0009D0788F38EEF9FEF02C080E090E0DF91F9
:100BD000CF911F910F91089556985E9825982D9862
:100BE00026982E9827982F988FEF90E09093890061
:100BF0008093880090938B0080938A0090938D005F
:100C000080938C00259A2D9A2FEF80E792E0215057
:100C100080409040E1F700C00000269A2E9A2FEF06
:100C200080E792E0215080409040E1F700C0000052
:100C3000279A2F9A2FEF80E792E021508040904032
:100C4000E1F700C0000025982D982FEF80E792E093
:100C5000215080409040E1F700C0000026982E9877
:100C60002FEF80E792E0215080409040E1F700C0F4
:100C7000000027982F9856985E9825982D982698CA
:100C80002E9827982F98089589EA8093800089E00C
:100C90008093810024982C983F988AB18F7C8AB9E0
:100CA0006E98479A8BB180638BB9769A0E94EC0557
:100CB0000C94F10380E290E0909301018093000195
:100CC0008091370281110EC00E94160581E0809349
:100CD00037022FEF83ED90E3215080409040E1F701
:100CE00000C0000064E670E080E40E941C05909360
:100CF000010180930001892B09F050C064E670E087
:100D000080E00E9473059093010180930001892B7C
:100D100009F044C064E670E080E00E94730590939F
:100D2000010180930001892BC9F564E670E08FE32F
:100D30000E9473059093010180930001892B71F546
:100D400084E690E00E94C80564E670E080E40E94BA
:100D50001C059093010180930001892BF9F464E64E
:100D600070E08CE00E947305909301018093000174
:100D7000892BA1F464E670E080E00E9473059093F3
:100D8000010180930001892B49F464E670E08FE350
:100D90000E947305909301018093000184E690E026
:100DA0000E94C805809100010895611108C0FC01EE
:100DB0008281882321F086E691E00E947E0780E010
:100DC00090E00895863E9C4541F4FB018281882392
:100DD00029F00E94EA1980E0089581E00895CF92F9
:100DE000DF92EF92FF926B017C010E942C195698C2
:100DF0005E9825982D9826982E9827982F9890E001
:100E0000FC013197E730F105A8F4E35AFF4F0C9449
:100E10001F27259A2D9A0EC0259A2D9A269A2E9A2A
:100E200009C0259A2D9A04C0259A2D9A269A2E9AA1
:100E3000279A2F9AC701B601FF90EF90DF90CF90CD
:100E4000089581E008950C94E206CF93282F30E0B6
:100E5000F901EC5BFB4FC491F901EC53FB4F24917A
:100E6000222359F081EE0E94330E8C2F0E94330E04
:100E70008C2F0E946C0F81EE04C08C2F0E94330EC9
:100E80008C2FCF910C946C0F0F931F93CF93DF9304
:100E9000EC01062FFE018491882359F19E012F5FFA
:100EA0003F4F813041F4E901F9011491812F0E94F3
:100EB000330E812F0DC0823031F4E901F9018491A4
:100EC0000E94330E0AC0833031F4E901F9018491A4
:100ED0000E946C0F02C00E9425072196802F882354
:100EE000C9F2EFE9FFE03197F1F700C0000081504F
:100EF000F6CFDF91CF911F910F91089560E00C9490
:100F000044070E947C19811102C00E94EA190E94C4
:100F1000D70B0C9444060C94F303282F2F7041F048
:100F2000822F90E02A3010F44D9608950697089588
:100F300087E290E0089508950C949B070C949C0719
:100F400008950E94E9120E94A0072FEF84E39CE01D
:100F5000215080409040E1F700C000000C945A1BE3
:100F6000FF920F931F93CF93DF938C01FC01C081FD
:100F7000D18180916302811113C08281882349F05D
:100F8000CE010E941C18F82E682FCE010E94BF17B8
:100F900004C0CE010E94EF17F82EBE018F2D04C0B1
:100FA000CE010E941C18BE010E944909EC01B80143
:100FB0000E942307882309F464C1B801CE010E946E
:100FC000520C882309F45DC1C63DFCE5DF0761F5DD
:100FD000F8018281882351F010923D020E94FE1A8E
:100FE00090933A028093390282E03BC00E94ED1850
:100FF00085FF05C081E080933D0280933E02809191
:101000003D0281110FC08091390290913A020E94F5
:101010000A1B883C910530F486E20E94330E86E27A
:101020000E946C0F82E02FC0C73D8CE5D80770F19D
:10103000CB3D8CE5D80709F4D6C008F0DBC0C73D2E
:10104000FCE5DF0709F0F4C0F8018281882361F034
:1010500010923E020E94FE1A90933C0280933B0243
:1010600080E20E94DC0F0DC10E94ED1881FF05C0D7
:1010700081E080933D0280933E0280913E0288236E
:1010800009F4C5C080E20E94E30FFBC0C531ECE566
:10109000DE0708F07EC0C230FCE5DF0708F452C06E
:1010A000F8018281882309F459C00E947C198111BA
:1010B00002C00E94EA190E948F1990E090933F03AA
:1010C00080933E03FE01E350FC45E231F10530F42C
:1010D000EC59FF4F80913E030C941F2780913E03F3
:1010E000816027C0826025C0846023C0806121C0E8
:1010F00080621FC080641DC080681BC084608860DF
:1011000018C08E7F16C08D7F14C08B7F12C08F7E5B
:1011100010C08F7D0EC08F7B0CC08F770AC08B7F75
:10112000877F07C087FB222720F991E0922790FB59
:1011300087F980933E0380913E030E9493190E9499
:10114000E9129FC0C1158CE5D80781F0C130DC459C
:10115000A9F081E080933D0280933E02C801DF91B7
:10116000CF911F910F91FF900C942107F80182817C
:10117000882309F486C00E94A10783C0F8018281F8
:10118000882309F47EC0809102038160809302036A
:1011900078C0C631DC45E9F60E94ED18282FF80129
:1011A00082814091020150910301882379F02A7ACB
:1011B00091E009F490E090933802911102C069E245
:1011C00001C065E3CA010E94511A0AC08091380229
:1011D000811102C069E201C065E3CA010E945C1A84
:1011E0000E94BA184EC0F8018281882309F449C0D0
:1011F00080E00AC0CC3DECE5DE07D1F5F801828144
:10120000882309F43EC082E00E9442223AC08091C5
:101210003B0290913C020E940A1B883C910508F019
:1012200031CF87E20E94330E87E20E946C0F2ACFF3
:10123000C83DDC4509F08DCFF8018281811108CFCE
:1012400080913E0281111ECF80913B0290913C0221
:101250000E940A1B883C910508F014CF80E20E948E
:10126000E30F88E20E94330E88E20E946C0F09C0EF
:10127000CD3DDC4509F06DCFF801828181110E94DE
:10128000EA1980E0DF91CF911F910F91FF900895AF
:10129000089596E0799FF001112494E5899FE00D6F
:1012A000F11D1124E60FF11DEE0FFF1FEC55FE4F4F
:1012B000859194910895880F991FFC01E056FE4F87
:1012C000859194910895CF93DF930E9449090E94DC
:1012D000200BEC01811520E59207F0F5811530E433
:1012E000930708F029C1883E910500F5803E9105DD
:1012F00008F0A2C1883A910570F4853A910508F08A
:10130000A3C08130910509F497C108F448C104973E
:1013100008F092C144C18F3B910508F4A0C0803C05
:10132000910508F43CC1805C9109F8C08115904298
:1013300058F4C11581E0D80708F07EC1C03FD1053F
:1013400008F42DC1D06578C1C11590E3D90708F024
:10135000E9C0CE019F70E2C0811525E5920708F033
:1013600043C0811534E5930708F0FDC0811542E5BF
:10137000940708F5C11581E5D80708F0E0C02C2FC7
:10138000237081E090E002C0880F991F2A95E2F750
:101390009C689E0174E0369527957A95E1F7237055
:1013A000922BCF70C695C69540E2C49FE0011124F0
:1013B000C82BD92B41C1869586959E012370332772
:1013C000C115D34508F0C0C040E2849FC00111247C
:1013D000C1E0D0E002C0CC0FDD1F2A95E2F78C2BD4
:1013E0009D2BEC01DC6828C181152AE5920798F451
:1013F000811539E5930708F0C1C08115964508F4B9
:10140000B7C0C11588E5D80708F4C9C0DC2FCC27C0
:10141000C06FD06A11C1C1159BE5D90708F4BFC0E0
:10142000C1152CE5D20708F4B7C0CE01905681153E
:10143000904208F0B4C08D2F8F710E949D0BDD2764
:10144000D0628F71D82BF8C0853A910509F4AAC0F3
:10145000863A910509F0A9C0C2E8D0E4EDC0883A07
:10146000910509F4A5C0893A910509F4A4C08A3A06
:10147000910509F4A3C08B3A910509F4A2C08C3AF6
:10148000910509F4A1C08B3B910509F4A0C08C3BE8
:10149000910509F49FC08D3A910509F49EC0803BE7
:1014A000910509F49DC08E3A910509F49CC08F3ACC
:1014B000910509F49BC0813B910509F49AC0823BD8
:1014C000910509F499C0833B910509F498C0843BC8
:1014D000910509F497C0853B910509F496C0863BB8
:1014E000910509F495C0873B910509F494C0883BA8
:1014F000910509F493C0893B910509F492C08D3B95
:10150000910509F491C08E3B910509F490C08A3B86
:10151000910509F48FC0C0E0D4E48EC00E945B093D
:10152000EC018AC0CE019927D3FF03C0EC01D86C2F
:1015300083C0EC01D06C80C0DF70D06A7DC0DC2F2E
:10154000CC27C16FD06A78C040E2849FC0011124CB
:10155000C1E0D0E002C0CC0FDD1F2A95E2F7C82B16
:10156000D92BDA6869C0D82FCC27C46FD06A64C081
:10157000CF71DD27DC2FCC27D0625EC08F70806EEC
:1015800090E0906A24E0D695C7952A95E1F7CF7050
:101590009C013C2BE90150C0DD27D0664DC0C0E066
:1015A000D0E04AC0C1E8D0E447C0C3E8D0E444C0BA
:1015B000C2EED4E441C0C9EED4E43EC0CAEED4E4E5
:1015C0003BC0C5EBD4E438C0C6EBD4E435C0C3EBB4
:1015D000D4E432C0C4EBD4E42FC0C7EBD4E42CC0B5
:1015E000CCECD4E429C0CDECD4E426C0C3E8D5E4E7
:1015F00023C0CAE8D5E420C0C2E9D5E41DC0C4E9CF
:10160000D5E41AC0C1E2D6E417C0C3E2D6E414C0E0
:10161000C4E2D6E411C0C5E2D6E40EC0C6E2D6E408
:101620000BC0C7E2D6E408C0CFE6D4E405C0C0E7EB
:10163000D4E402C0CAE2D6E4CE01DF91CF9108958E
:101640008238910549F1B0F48133910509F458C00D
:1016500048F48932910509F44EC08A32910509F4A3
:1016600054C008958533910509F440C0893391052C
:1016700099F00895833E910529F138F4803E910553
:1016800091F0823E9105A1F00895863E9105F9F012
:10169000873E910531F1089520913E0320FD3AC027
:1016A00021FD38C0089580913E0380FD35C032C0D1
:1016B00080913E0382FF32C080913E0384FD30C0A2
:1016C00083EE39C080913E0382FD28C0F5CF809122
:1016D0003E0383FF27C080913E0384FD21C087EE37
:1016E0002AC080913E0383FD1DC0F5CF80913E034B
:1016F00085FD1AC01BC080913E0385FD17C014C034
:1017000080913E0386FD14C015C080913E0386FD86
:1017100011C00EC080EE0FC089E30DC082EE0BC079
:1017200080E009C086EE07C089E205C085E303C0FA
:101730008AE201C081E390E0089590913E0392FF18
:101740000DC0282F2871283019F4877F846006C0C7
:10175000282F2471243011F48B7F886093FF0DC0F3
:10176000282F2871283119F4877E846106C0282F1C
:101770002471243111F48B7E886194FD877E089555
:10178000CF93DF93813020E8920768F0FB0122813C
:10179000222349F0EC010E94ED0BCE019F770E94BD
:1017A000350C0E94220C81E0DF91CF9108958CE0EE
:1017B00090E00E94392790E0A0E0B0E080933403ED
:1017C00090933503A0933603B09337030895609147
:1017D00034038CE090E00C9447270E94ED1880932E
:1017E0003F020E94001980913403813071F048F06B
:1017F0008230D9F08430F9F486EE0E94D40F88E16B
:1018000018C082EE0E94330E16C080EE0E94330E86
:1018100081EE0E94330E88E10E94D40F81EE0E9477
:101820006C0F80EE0E946C0F06C082EE0E94330E99
:1018300087E50E94D40F8FE39CE90197F1F700C080
:101840000000089580913403813021F038F0823017
:1018500029F007C08CE20E94D40F03C082EE0E94E0
:101860006C0F80913F020C94FD180F931F93CF9340
:10187000DF938C01CCE0D0E0C8010C2E02C096951D
:1018800087950A94E2F78F700E948D070E94D40F0B
:101890002497CC3F8FEFD80779F7DF91CF911F9135
:1018A0000F9108950F931F93CF93DF93EC018B015A
:1018B000FB018281882319F1C23EFCE5DF07C1F0FC
:1018C00050F4C03EECE5DE0781F0C13EFCE5DF07E9
:1018D000B1F481E010C0C33E8CE5D80759F0C43E96
:1018E000ECE5DE0761F484E006C01092340305C025
:1018F00082E001C083E0809334030E94E70BB801CB
:10190000CE01DF91CF911F910F910C94C00B90935A
:101910004502809344020895E0914402F09145020B
:10192000309721F00190F081E02D099480E0089536
:10193000E0914402F0914502309799F02091130113
:10194000222359F020913E0327FF07C0DC012C9190
:1019500011962C93119725E02C930280F381E02DB2
:1019600009940895E0914402F0914502309739F0CE
:1019700022E0DC012C930480F581E02D0994089588
:1019800020914202309143028217930771F09093A5
:10199000430280934202E0914402F0914502309765
:1019A00021F00680F781E02D0994089520914002EE
:1019B000309141028217930771F090934102809316
:1019C0004002E0914402F0914502309721F00084FA
:1019D000F185E02D0994089585B7806885BF85B7A6
:1019E000806885BF089508950E94EC0C0C94F30C58
:1019F00081E008950E94F51A0E94F5030C948C1B57
:101A0000CF92DF92EF92FF920F931F93CF93DF93CA
:101A1000CDB7DEB72B970FB6F894DEBF0FBECDBFA4
:101A20000E94C7040E94F80C811111C08FEF8983B6
:101A30008A831B820E94FE1A8160782F9D838C838B
:101A400049815A816B818D810E94E40D56C087E4E3
:101A5000C82E82E0D82E00E010E0E02E802F0E94F9
:101A60000F05F60141916F01F42EF82631F40F5F56
:101A70001F4F0E30110589F7D9CF9091020391FFC6
:101A800004C08B870E9415058B8520E030E04F2D28
:101A900050E0922FBA01022E02C0759567950A9404
:101AA000E2F760FF24C02E83EF8221E030E069017D
:101AB00002C0CC0CDD1C9A95E2F790E08C219D21B0
:101AC000892B09F420E028870E94FE1A8160782F74
:101AD0009A8789874E815F8168858A850E94E40D97
:101AE000F801E95BFD4F8081C826C08206C02F5FE8
:101AF0003F4F2630310569F6BACF0E941F1D109165
:101B000046020E948C0C1817A1F00E948C0C809346
:101B100046022B960FB6F894DEBF0FBECDBFDF9105
:101B2000CF911F910F91FF90EF90DF90CF900C9489
:101B30009E072B960FB6F894DEBF0FBECDBFDF9188
:101B4000CF911F910F91FF90EF90DF90CF9008956C
:101B5000DC0111962C9111978C91682F70E041E077
:101B600050E001C0440F8A95EAF712968C911297C3
:101B700030E0882329F0809165028823E9F006C0CF
:101B8000F901EB5AFD4F90819423B1F086E0829FDA
:101B9000F001839FF00D1124E60FF71FEE0FFF1FDA
:101BA000EC5EFE4F808191818D939C93F901EB5AFD
:101BB000FD4F8081482B06C0F901EB5AFD4F40953F
:101BC0008081482340830895CF93DF93CDB7DEB75C
:101BD0002B970FB6F894DEBF0FBECDBF942F4F8367
:101BE000252F588769877A878B874A855B85452BA0
:101BF00021F02F3F09F59F3FF9F4DE01119686E0B1
:101C0000FD0111928A95E9F785E0FE013796019072
:101C10000D928A95E1F749815A816B817C818D8192
:101C20009E810E9490152B960FB6F894DEBF0FBED2
:101C3000CDBFDF91CF910895CE0107960E94A80DE8
:101C4000DCCFFC01808191810E945B1892959F708E
:101C5000963041F48091650291E089278093650276
:101C6000909364020895CF93DF931F92CDB7DEB7B0
:101C7000882309F42DC1682F8238C1F40E948C0C8E
:101C800081FD26C169E380910201909103010E94C8
:101C9000511A0E94BA182FEF81EE94E02150804033
:101CA0009040E1F700C0000069E319C0833811F5E6
:101CB0000E948C0C80FD0CC163E580910201909123
:101CC00003010E94511A0E94BA182FEF81EE94E08E
:101CD000215080409040E1F700C0000063E5809112
:101CE0000201909103010E945C1A0F90DF91CF9145
:101CF0000C94BA188438C1F40E948C0C82FDE8C0A0
:101D000067E480910201909103010E94511A0E94A0
:101D1000BA182FEF81EE94E0215080409040E1F717
:101D200000C0000067E4DBCF8CEF860F813A70F4CF
:101D3000862F69830E94551F69818111C9C08091D6
:101D40000201909103010E94511ACFCF80E2860FC9
:101D5000883048F4677081E001C0880F6A95EAF71F
:101D60000E94F018C2CF8BE5860F833088F4653A65
:101D700029F0663A31F083E890E005C081E890E010
:101D800002C082E890E00F90DF91CF910C94C00CDC
:101D900088E5860F873108F091C0683A09F445C09C
:101DA000693A09F445C06A3A09F445C06B3A09F446
:101DB00045C06C3A09F445C06B3B09F445C06C3B27
:101DC00009F445C06D3A09F445C0603B09F445C0CB
:101DD0006E3A09F445C06F3A09F445C0613B09F415
:101DE00045C0623B09F445C0633B09F445C0643B10
:101DF00009F445C0653B09F445C0663B09F445C09C
:101E0000673B09F445C0683B09F445C0693B09F4E8
:101E100045C06D3B09F445C06E3B09F445C06A3BC3
:101E200009F445C080E090E044C082EE90E041C0FB
:101E300089EE90E03EC08AEE90E03BC085EB90E0FA
:101E400038C086EB90E035C083EB90E032C084EB85
:101E500090E02FC087EB90E02CC08CEC90E029C084
:101E60008DEC90E026C083E891E023C08AE891E001
:101E700020C082E991E01DC084E991E01AC081E2AE
:101E800092E017C083E292E014C084E292E011C0B5
:101E900085E292E00EC086E292E00BC087E292E01B
:101EA00008C08FE690E005C080E790E002C08AE2BB
:101EB00092E00F90DF91CF910C94D60C603F40F0F0
:101EC000862F0E94271C0F90DF91CF910C94141D38
:101ED0000F90DF91CF910895882309F464C0823870
:101EE00079F40E948C0C81FF5EC069E3809102014D
:101EF000909103010E94511A0E94BA1869E310C020
:101F00008338B1F40E948C0C80FF4DC063E5809152
:101F10000201909103010E94511A0E94BA1863E5D0
:101F200080910201909103010E945C1A0C94BA18EE
:101F3000843879F40E948C0C82FF35C067E480916C
:101F40000201909103010E94511A0E94BA1867E49D
:101F5000E7CF9CEF980F913A10F4682FE1CF90E211
:101F6000980F983050F4877091E001C0990F8A95CE
:101F7000EAF7892F0E94F618D9CF9BE5980F933086
:101F800020F480E090E00C94C00C98E5980F973115
:101F900020F480E090E00C94D60C803F20F00E946A
:101FA0008F1C0C94141D0895CF93C82F0E94330EDC
:101FB0008C2FCF910C946C0F882321F00E94F01885
:101FC0000C94BA180895882321F00E94F6180C94F6
:101FD000BA1808958F929F92AF92BF92DF92EF92BC
:101FE000FF920F931F93CF93DF937C01D62FC72FC0
:101FF000FC01058102950F70128111110E941019C8
:102000000E94B318882379F0112369F080E28D0FC4
:10201000883048F082E00E949C180E94B31891E03A
:10202000D82ED92601C0D12CAC2EA2948FE0A822A4
:10203000B12CF501EA58FF4F0C941F278C2F807F9D
:10204000CF70882311F0C295C07F112399F0CC2363
:1020500009F4C8C180E28D0F883010F0D11104C09E
:102060008C2F0E94F01803C08C2F0E9403190E942D
:10207000BA18B8C18D2F0E946C0FCC2309F42EC260
:1020800080E28D0F883010F0D11104C08C2F0E9497
:10209000F61803C08C2F0E9409190E94BA181EC29C
:1020A0008C2F807FCF70803211F0C295C07FDD23EE
:1020B00019F0D130C9F021C0112371F0002341F093
:1020C000013031F40E9429198C2B0E94231906C279
:1020D0000E9429198C2B3FC1002319F0013009F40B
:1020E000FDC10E94261911C0112321F0023008F011
:1020F000F5C107C00111F2C108C0112321F001117F
:1021000071C18C2F28C101117EC18C2F2AC18C2F47
:1021100086958695837090E0009719F0019761F09D
:10212000DDC1112321F08D2F9C2F937002C080E020
:1021300090E00E94C00CE2C1112321F08D2F9C2F52
:10214000937002C080E090E00E94D60CD7C11123AA
:10215000F9F0D53F51F0D63F71F0D43FA9F480910A
:1021600038039091390381600BC0809138039091BE
:102170003903826005C080913803909139038460EF
:1021800090933903809338038D2F0E94271C1EC023
:10219000D53F51F0D63F71F0D43FA9F48091380378
:1021A000909139038E7F0BC0809138039091390351
:1021B0008D7F05C080913803909139038B7F909378
:1021C0003903809338038D2F0E948F1C0E94141DA9
:1021D00095C18C2F837009F050C011118BC18D2FC8
:1021E000829586958770880F880F9D2F9F70892E06
:1021F000912CA12CB12C082E04C0880C991CAA1C6F
:10220000BB1C0A94D2F7D4FF14C00FE010E020E00A
:1022100030E0B901A80104C0440F551F661F771FA5
:102220008A95D2F7CB01BA0160957095809590950B
:1022300003C060E070E0CB01C695C695C370D0E0E6
:10224000C230D10561F0C330D10581F06829792908
:102250008A299B29219771F00E94D5164BC16829C4
:1022600079298A299B290E94E71644C10E94D51624
:10227000C501B4010E94C3163DC1112319F08C2F72
:10228000817001C08695882309F434C18D2F829511
:1022900086958770880F880F9D2F9F70892E912CAF
:1022A000A12CB12C082E04C0880C991CAA1CBB1CA4
:1022B0000A94D2F7D4FF14C00FE010E020E030E021
:1022C000B901A80104C0440F551F661F771F8A95E6
:1022D000D2F7CB01BA01609570958095909503C0B7
:1022E00060E070E0CB01C695C695C3704C2F50E0FE
:1022F0004230510569F04330510589F06829792948
:102300008A299B294130510571F00E949A17F2C029
:10231000682979298A299B290E94AC17EBC00E9461
:102320009A17C501B4010E948817E4C08D2F90E070
:10233000FC01E05EF109E531F10508F04FC0EA5714
:10234000FF4F0C941F27DF708C2F8F71112331F0FA
:102350000E9421178D2F0E94DC0FC0C00E944217DF
:102360008D2F0E94E30FBAC0112339F00111B6C0BE
:102370008C2F8F710E946717B1C0023008F0AEC079
:10238000F7CF112339F08C2F8F710E942117A6C02F
:102390001123C9F38C2F8F710E9442179FC0112304
:1023A00029F08C2F8F710E940C1798C00E9407177C
:1023B00095C0112349F0CF718C2F0E94211763E043
:1023C0008C2F0E9493188AC081E00E949C180230D2
:1023D00008F484C082E00E949C1880C0112331F070
:1023E000002389F28D2F0E94330E78C0002391F2D2
:1023F000D93349F45FEF67EE73E0515060407040AD
:10240000E1F700C000008D2F0E946C0F67C04C2FB9
:102410004F706D2FC7010E94D5060E9434166EC002
:10242000D23FB1F028F4D03F49F0D13FF9F028C0B5
:10243000D43FB9F058F0D53F71F022C0112309F410
:1024400047C09091650281E0892708C081E0182784
:10245000109365023DC011113BC081E0809365027D
:1024600037C0111135C01092650232C0112329F016
:1024700080916402882329F329C0002311F328C026
:10248000809164020023C1F0882341F0909165029D
:1024900081E0892780936502109264028D2F1123B9
:1024A00019F00E94330E14C00E946C0F86E0F701F1
:1024B00011928A95E9F70CC0882351F0111108C0D8
:1024C0009091650281E089278093650210926402F1
:1024D0004C2F4F706D2FC7010E944809F8E0AF16CE
:1024E000B10441F05CF04AE0A41AB10852E0A5162C
:1024F000B10420F40E948C0C0E949E07DD20E1F0C4
:102500000E948F1880FD18C0F70112820E9489185E
:102510000E942117C7010E94A8120E948918DF910A
:10252000CF911F910F91FF90EF90DF90BF90AF90F0
:102530009F908F900C944217DF91CF911F910F9134
:10254000FF90EF90DF90BF90AF909F908F90089595
:102550000F931F93CF93DF93EC01888199812B8197
:102560003C81232BB9F09F3F11F48F3F99F0CE01AE
:102570000E94B007882371F0688179818A810E9466
:1025800066188C010E94BE170E94C016B801CE01C9
:102590000E94EA0FDF91CF911F910F9108950E9441
:1025A00010190E9420190E94BA180E94BA1D0E9498
:1025B000141D80E090E00E94C00C80E090E00C943C
:1025C000D60C80910201909103010E94671A0C942D
:1025D000CF120E9400190C94E1120E945B18E92F9F
:1025E000E295EF70F0E03297EE30F105B0F4E55689
:1025F000FF4F0C941F27803F91F018F4803E68F441
:102600000EC0843F51F40BC0803E48F0813F29F456
:1026100006C093FB882780F9089580E0089581E043
:102620000895CF93DF9300D000D01F92CDB7DEB7CF
:102630000F900F900F900F900F90DF91CF91089512
:10264000CF93DF9300D000D000D0CDB7DEB7269671
:102650000FB6F894DEBF0FBECDBFDF91CF910895C6
:102660001F93CF93DF93C091660216E080916702BB
:10267000C81799F0D0E01C9FF0011D9FF00D1124A8
:10268000E859FD4F40815181628173818481958138
:102690000E9420132196C770E9CFDF91CF911F913F
:1026A0000895409198025091990260919A02709118
:1026B0009B0280919C0290919D020C94201380912A
:1026C0009D0282958F7009F054C080919A028823F0
:1026D00009F44FC080916602A09167026091980250
:1026E0007091990240919B0250919C02B6E08A172A
:1026F00009F43FC090E041155105C1F17F3F11F44D
:102700006F3FA1F1B89FF001B99FF00D1124E85976
:10271000FD4F218172132AC02081621327C02281BC
:10272000211124C0238134812417350710F421504E
:102730003109241B350B283C3105C0F420919D0242
:102740002F70206120939D0226E0289FF001299F91
:10275000F00D1124E359FD4F80818F7080618083DB
:1027600088E992E00E94A8120C94301301968770B9
:10277000BECF0895CF92DF92EF92FF920F931F93F7
:10278000CF93DF93CDB7DEB762970FB6F894DEBF75
:102790000FBECDBF8C0185E0F801DE011D960190D2
:1027A0000D928A95E1F7D8014C9111965C911197A1
:1027B00012966C9112971396CD90DC9014973091ED
:1027C00098027091990280919B0290919C020097CF
:1027D00009F46BC17F3F19F43F3F09F466C1E090F3
:1027E0009A02EE2009F4C0C020919D02C816D906B5
:1027F00028F0F601E81BF90BCF0104C080959095F5
:102800008C0D9D1DFF24F394883C910578F0F12CEC
:10281000207F09F0C6C07C2DD98AC88A89890E9488
:10282000111388E992E00E94A812B1C0822F807F24
:1028300009F046C0751314C0341312C0611110C0E2
:102840002F70206120939D020E94511388E992E02D
:102850000E94A81280919D02D80115968C932EC0DB
:10286000CD2819F15F3F11F44F3FF9F0F62E6111B9
:102870001CC0809166022091670236E0821709F43D
:102880005AC090E0389FF001399FF00D1124E859AB
:10289000FD4F7181571306C07081471303C07281C9
:1028A000711103C001968770E9CFF62E662309F4F3
:1028B00027C180919D02816080939D02F12C20C1EF
:1028C000751308C0341306C0611104C080919D02C5
:1028D000D801C3C04D875E878D859E856A8B0E9417
:1028E000ED126A898823E1F16623D1F120919D02DE
:1028F000822F82958F7090E0029774F080919802F9
:102900009091990298878F831986DB86CA862C87D7
:10291000CE0107960E94A81286E0F801A8E9B2E06D
:1029200001900D928A95E1F70E945F130E94511366
:10293000FF24F394E5C04D875E878D859E850E94B8
:102940005B18292F22952F7030E0223031050CF0D2
:10295000CBC09F7009F0C5C0805E883008F4D0C03D
:10296000C8010E94A812E4CFC816D90608F453C0C3
:10297000F601E81BF90BCF01883C910508F450C023
:10298000F12C7C2DD98AC88A89890E941113E8E923
:10299000F2E086E0DF011D928A95E9F70E9451136B
:1029A000AFC0751314C0341312C0611110C08091F0
:1029B0009D02F8018583C8010E94A81286E0E8E91B
:1029C000F2E0DF011D928A95E9F7FE2C99C04D8750
:1029D0005E878D859E856A8B0E94ED126A898823A9
:1029E00009F4BECF662309F4BBCF20919D02822F4C
:1029F00082958F7090E002970CF48ECF80919802B0
:102A0000909199029A8389831B82DD82CC822E83E6
:102A1000CE0101967FCF809590958C0D9D1DACCFFA
:102A2000F62E662309F49CCF75132EC034132CC0E8
:102A300020919D0220FD1FC0822F82958F70D9F0BA
:102A4000D80115962C9315978F3049F08F5F982FEA
:102A50009295907F822F8F70892B15968C93C80149
:102A60000E94A81286E0F801A8E9B2E001900D9258
:102A70008A95E1F793CF86E0F801A8E9B2E00190EA
:102A80000D928A95E1F73CC04D875E878D859E85C6
:102A90000E94ED12811140CF80919D028160809350
:102AA0009D02C8010E94A8122BC0662309F458CFCA
:102AB0004D875E878D859E850E94ED12F82E8823B6
:102AC00009F44ECF86E0F801A8E9B2E001900D923A
:102AD0008A95E1F788E992E00E94210E0E945F1337
:102AE0005DCF811139CF0CC0243031050CF038CFC7
:102AF0009F7009F431CFF8019581907F09F02CCFB8
:102B00008F2D62960FB6F894DEBF0FBECDBFDF915A
:102B1000CF911F910F91FF90EF90DF90CF9008958C
:102B20001F93CF93DF93CDB7DEB72C970FB6F894F2
:102B3000DEBF0FBECDBF4F83588769877A878B87EB
:102B40009C87CE0107960E94BA13882369F08F8173
:102B500098852A853B85232BF1F19F3F09F063C0BF
:102B60008F3F09F060C037C086E0FE013796DE0176
:102B7000119601900D928A95E1F76F817885EA852B
:102B8000FB85309741F17F3F11F46F3F21F1209198
:102B9000670230E0C901019687709927409166026B
:102BA00050E08417950709F447C069837A83FD8351
:102BB000EC8396E0929FD001939FB00D1124A85909
:102BC000BD4FFE01319601900D929A95E1F78093E9
:102BD00067020E94301316E08091660290916702AE
:102BE0008917C1F1189FC001112488599D4F0E9477
:102BF000BA13882379F1E09166021E9FF001112437
:102C0000E859FD4F408151816281738184819581B2
:102C10000E9420138091660290E0019687709927A8
:102C200080936602D9CF4F81588569857A858B85D7
:102C30009C850E942013CFCF0E94E9121092670258
:102C400010926602E8E9F2E086E0DF011D928A95C3
:102C5000E9F7C1CF2C960FB6F894DEBF0FBECDBFFB
:102C6000DF91CF911F910895EF92FF920F931F93E1
:102C7000CF93DF938C01892B09F46CC0F12CEE24E7
:102C8000E394E8012196F8018491843740F484307C
:102C900008F051C0813081F0823019F15BC0853776
:102CA00009F444C0A8F19CE7980F903708F052C08F
:102CB0008F770E946C0F41C00E5F1F4FFE01C491C1
:102CC00080E28C0F883048F4C7708E2D01C0880FC9
:102CD000CA95EAF70E94131914C08C2F0E94330E74
:102CE0002DC00E5F1F4FFE01C49180E28C0F883013
:102CF00058F4C7708E2D01C0880FCA95EAF70E945C
:102D000019190E94BA181AC08C2F0E946C0F16C095
:102D10000E5F1F4FFE01C491CC2381F08FE99FE02D
:102D20000197F1F700C00000C150F6CF0E5F1F4FB2
:102D3000FE01F49003C00E94330E8E018F2D882374
:102D400009F49FCFEFE9FFE03197F1F700C00000F1
:102D50008150F5CFDF91CF911F910F91FF90EF90B0
:102D6000089508950C94B1160E94B2166093D9028A
:102D70007093DA028093DB029093DC020C94CF1202
:102D800008950C94B4160F931F930091D9021091DB
:102D9000DA022091DB023091DC02602B712B822B56
:102DA000932B1F910F910C94B4160F931F930091C6
:102DB000D9021091DA022091DB023091DC0260230B
:102DC0007123822393231F910F910C94B4160F93B8
:102DD0001F930091D9021091DA022091DB02309109
:102DE000DC0260277127822793271F910F910C9493
:102DF000B4160C94EF060E94F9166093D5027093F6
:102E0000D6028093D7029093D8020C94CF1260E040
:102E100070E0CB010C94FB160F931F9341E050E040
:102E200060E070E08A019B0104C0000F111F221FA7
:102E3000331F8A95D2F7C901B8011F910F910C94E5
:102E4000FB160F931F9341E050E060E070E004C078
:102E5000440F551F661F771F8A95D2F78091D502C0
:102E60009091D602A091D702B091D8028A019B011D
:102E7000082B192B2A2B3B2BC901B8011F910F914D
:102E80000C94FB160F931F9341E050E060E070E05C
:102E900004C0440F551F661F771F8A95D2F74095CF
:102EA0005095609570958091D5029091D602A09131
:102EB000D702B091D8028A019B01082319232A2343
:102EC0003B23C901B8011F910F910C94FB160F937E
:102ED0001F9341E050E060E070E004C0440F551FD4
:102EE000661F771F8A95D2F78091D5029091D602FE
:102EF000A091D702B091D8028A019B010827192717
:102F00002A273B27C901B8011F910F910C94FB168A
:102F10000F931F930091D5021091D6022091D702F2
:102F20003091D802602B712B822B932B1F910F9124
:102F30000C94FB160F931F930091D5021091D602AB
:102F40002091D7023091D8026023712382239323EA
:102F50001F910F910C94FB160F931F930091D502B4
:102F60001091D6022091D7023091D80260277127A4
:102F7000822793271F910F910C94FB160895292FF8
:102F8000220F920F990F890FA82FA695A695A695A7
:102F9000877051E001C0550F8A95EAF785E0A89F38
:102FA000D001112420E030E070E0F901EA0FFB1FAE
:102FB000E256FD4F4081CB01022E02C096958795C7
:102FC0000A94E2F7817099278195842785238427C5
:102FD00080832F5F3F4F2530310539F70895292F22
:102FE000220F920F990F890F682F66956695669547
:102FF000982F977085E0689FB001112440E050E061
:1030000080E0FA01E60FF71FE256FD4F208130E025
:10301000092E02C0369527950A94E2F721703327CE
:10302000042E01C0220F0A94EAF7822B4F5F5F4FF4
:103030004530510531F70895CF92DF92EF92FF921C
:103040000F931F93CF93DF938C01C090D902D09040
:10305000DA02E090DB02F090DC028091D5029091E0
:10306000D602A091D702B091D802C82AD92AEA2A5A
:10307000FB2ACFE1D0E0D701C6010C2E04C0B695E3
:10308000A795979587950A94D2F780FF06C0B80157
:103090008C2F0E946309019721F4219760F780E04B
:1030A00001C08C2FDF91CF911F910F91FF90EF9076
:1030B000DF90CF900895CF93DF93EC010E941C180E
:1030C000BE010E946309DF91CF9108951F93CF93B2
:1030D000DF93EB0190916302992321F0CB010E94D1
:1030E0005B1813C0882349F0CB010E941C18182FCD
:1030F000682FCE010E94BF1704C0CB010E94EF17BA
:10310000182FBE01812F0E946309DF91CF911F917B
:1031100008958091DD028595859585950895809126
:10312000DD028770089598E0899F90011124262B75
:103130002093DD020C9421172091DD0280958223DB
:103140008093DD02982F977069F430E0482F082EA5
:10315000000C550B2417350729F085958595859525
:103160000C94421708959091DD02977081E009F464
:1031700080E00895E0910201F09103018091010344
:103180008083E0910201F09103019081809100031E
:10319000892B8083E0910201F0910301908180915D
:1031A000FF02892B80838091DE02882381F0E091E9
:1031B0000201F09103019081892B808380910201AB
:1031C000909103010E94EC1981111092DE0280910E
:1031D0000201909103010C94980C809101030895D1
:1031E00090910103892B809301030895809590911C
:1031F00001038923809301030895809301030895B7
:1032000010920103089590910003892B809300038D
:103210000895809590910003892380930003089579
:103220001092000308959091FF02892B8093FF0272
:10323000089580959091FF0289238093FF0208955D
:103240001092FF0208958093DE0208951092DE022C
:1032500008958091DE020895CF92DF92EF92FF925F
:103260006C01EE24FF24C114D104E104F10421F027
:10327000C701B60120E101C020E0C72ED82EE92EFB
:10328000FF24C114D104E104F10419F0285FC7013F
:10329000B6016B017C0154E0F694E794D794C7948F
:1032A0005A95D1F7C114D104E104F10419F02C5F4F
:1032B000C701B6016B017C0142E0F694E794D79414
:1032C000C7944A95D1F7C114D104E104F10419F06F
:1032D0002E5FC701B601DC01CB01B695A795979586
:1032E0008795892B8A2B8B2B09F02F5F822FFF90DC
:1032F000EF90DF90CF90089580E090E00E9441270A
:1033000021E08D3E9E4F09F020E0822F089582E05B
:1033100090E00C94392783E090E00C94392784E006
:1033200090E00C943927682F84E090E00C944727B4
:10333000AB01BC018FE090E00C945927AB01BC01BC
:1033400083E190E00C94592760E070E0CB010C948D
:103350009E1960E070E0CB010E9498190C94A419AA
:103360006DEE7EEF80E090E00E94652760E082E0F5
:1033700090E00E94472760E083E090E00E944727AA
:103380001092D9021092DA021092DB021092DC0243
:1033900060E084E090E00E94472760E085E090E0F4
:1033A0000E94472760E086E090E00E9447276FEF89
:1033B00087E090E00E94472740E050E0BA0188E0B3
:1033C00090E00E94592760E08DE090E00E9447273E
:1033D0000C94A9190C94B019FC0132968091130138
:1033E000882331F080913E0387FF02C09EE101C037
:1033F00096E080E0915028F021912223D9F38F5F4D
:10340000F9CF08959C01FC0132969FEF80E0419135
:10341000461789F09F3F19F4411101C0982F8F5F23
:103420008630A9F79F3F39F0F901E90FF11D97FDAB
:10343000FA95628308950895FC01329608962081DA
:10344000261301C010823196E817F907C1F70895D5
:10345000262F2695269526952E3168F4FC01E20F3D
:10346000F11D677021E030E001C0220F6A95EAF794
:103470008281282B22830895262F2695269526952E
:103480002E3170F4FC01E20FF11D677021E030E095
:1034900001C0220F6A95EAF72095828128232283B2
:1034A000089520911301222329F020913E0327FD46
:1034B0000C94281A0C94021A20911301222329F04B
:1034C00020913E0327FD0C943C1A0C941C1A209169
:1034D0001301FC013296222331F080913E0387FFD5
:1034E00002C08EE101C086E0DF011D928A95E9F7F6
:1034F000089508950C94791A0E947A1A80914403D1
:10350000843049F11092030320E488E190E00FB683
:10351000F894A895809360000FBE2093600080E02F
:103520000E949E070E947A1A83B7817F846083BFBE
:1035300083B7816083BF7894889583B78E7F83BF7C
:103540000FB6F894A8958091600088618093600020
:10355000109260000FBE08950895CF930E941E043C
:103560000E94C7040E94AC1AC0E08C2F0E940F0575
:10357000811104C0CF5FCE30C1F701C081E0CF918F
:10358000089508950C94C11A0E94E9120E948C0CAF
:103590000E949E070C94C21A1F920F920FB60F92B0
:1035A00011248F939F93AF93BF9380910303811155
:1035B00013C080913A0390913B03A0913C03B091DA
:1035C0003D034196A11DB11D80933A0390933B03A7
:1035D000A0933C03B0933D03BF91AF919F918F9116
:1035E0000F900FBE0F901F90189582E084BD93E05E
:1035F00095BD9AEF97BD80936E0008952FB7F8940C
:1036000080913A0390913B03A0913C03B0913D031C
:103610002FBF0895CF92DF92EF92FF920F931F93E7
:103620002FB7F89440913A0350913B0360913C03CB
:1036300070913D032FBF6A017B01EE24FF248C01B2
:1036400020E030E0C016D106E206F30610F4415047
:1036500051099A01281B390BC9011F910F91FF9045
:10366000EF90DF90CF90089578941F920F920FB64D
:103670000F9211248F939F93AF93BF9380913A033E
:1036800090913B03A0913C03B0913D030196A11D95
:10369000B11D80933A0390933B03A0933C03B093F6
:1036A0003D03BF91AF919F918F910F900FBE0F90EF
:1036B0001F901895F89481E08093E00080E2809359
:1036C000D800E9ECF0E010828FE19EE40197F1F779
:1036D00000C000001DBA109268001CBC10BE1FBACA
:1036E00010927A0010926E0010926F00109271008A
:1036F000109272001082ECEBF0E0108214B817B850
:103700001AB81DB810BA108215B818B81BB81EB870
:1037100011BA0C94003F08950E947C19811102C0D7
:103720000E94EA190E948719809302030E948F1950
:1037300090E090933F0380933E030E948B19682F83
:1037400070E080E090E00C94C1168091070380FF48
:103750000BC06091070185E0689FB0011124759549
:103760006795759567952BC081FF09C0609107012A
:1037700085E0689FB00111247595679520C082FF90
:1037800007C06091070185E0689FB001112417C050
:10379000909108039923D1F060910601961788F75C
:1037A0002091070185E0289F90011124929FA0019C
:1037B000939F500D112470E0CA010E940B276038BE
:1037C000710540F46115710539F002C065E070E0E3
:1037D000862F08958FE7089581E00895809107036B
:1037E00080FF08C06091050170E07595679575953B
:1037F000679521C081FF06C06091050170E0759555
:10380000679519C082FF04C06091050170E010C087
:10381000909108039923C1F0609104019617A0F7D5
:1038200080910501899FC001112470E00E940B273F
:103830006038710528F46115710521F0862F08950F
:103840008FE7089581E0089561E070E0F4CF803F54
:1038500021F40E94A51B819504C0813F29F40E9498
:10386000A51B80930C030895823F21F40E94A51BA1
:10387000819504C0833F29F40E94A51B80930B030C
:103880000895893F19F40E94EE1B05C08A3F31F468
:103890000E94EE1B819580930D0308958B3F21F4C8
:1038A0000E94EE1B819504C08C3F29F40E94EE1B00
:1038B00080930E030895843F21F480910A03816070
:1038C00017C0853F21F480910A03826011C0863FB2
:1038D00021F480910A0384600BC0873F21F480911A
:1038E0000A03886005C0883F31F480910A03806133
:1038F00080930A0308958D3F21F48091070381602E
:103900000BC08E3F21F480910703826005C08F3F7A
:1039100029F4809107038460809307030895803F12
:1039200039F480910C0387FF6CC010920C0369C0BE
:10393000813F29F480910C031816BCF362C090916A
:103940000B03823F29F497FF5CC010920B0359C010
:10395000833F19F41916CCF354C0893F41F4809188
:103960000D0318160CF04DC010920D034AC08A3F8B
:1039700029F480910D0387FF44C0F6CF8B3F39F4C3
:1039800080910E0387FF3DC010920E033AC08C3F1A
:1039900029F480910E031816BCF333C0843F21F440
:1039A00080910A038E7F17C0853F21F480910A031E
:1039B0008D7F11C0863F21F480910A038B7F0BC05D
:1039C000873F21F480910A03877F05C0883F31F447
:1039D00080910A038F7E80930A0313C08D3F21F4E8
:1039E000809107038E7F0BC08E3F21F480910703E7
:1039F0008D7F05C08F3F29F4809107038B7F8093D3
:103A0000070380910B0381110EC080910C0381117B
:103A10000AC080910D03811106C080910E038111AF
:103A200002C010920803089589E093E00E94B20C4E
:103A30000E94FE1A909305038093040308951F9338
:103A4000CF93DF9380910403909105030E940A1B9A
:103A5000AC0190910803992321F02091080130E0F6
:103A600006C0209106038AE0289F90011124421786
:103A7000530708F47BC080910B03C0910C03D091D5
:103A80000D0310910E03811107C0C1116BC0D1113C
:103A900069C0111167C06AC09F3F19F09F5F909382
:103AA0000803181624F40E94A51B80930B03809131
:103AB0000B0387FF05C00E94A51B819580930B0314
:103AC0001C1624F40E94A51B80930C0380910C0308
:103AD00087FF05C00E94A51B819580930C03309140
:103AE0000B033323E1F020910C032223C1F045EBBB
:103AF0003403C0011124892F990F990B009709F401
:103B000081E080930B0335EB2303C0011124892F3F
:103B1000990F990B009709F481E080930C031D160F
:103B200024F40E94EE1B80930D0380910D0387FF08
:103B300005C00E94EE1B819580930D03111624F49D
:103B40000E94EE1B80930E0380910E0387FF05C039
:103B50000E94EE1B819580930E03DF91CF911F9100
:103B60000C94141D9F3F09F099CFA1CFDF91CF9105
:103B70001F910895E9E0F3E086E0DF011D928A9548
:103B8000E9F710920803109207030895833081F13A
:103B900028F4813059F08230D1F00895853009F44D
:103BA00049C0B8F1863009F456C0089580910603E3
:103BB000262F30E0280F311D2F3F310524F4680FE8
:103BC0006093060308958FEF809306030895809114
:103BD0000801262F30E0280F311D2F3F310524F436
:103BE000680F6093080108958FEF8093080108958E
:103BF00080910701262F30E0280F311D2F3F31051E
:103C000024F4680F6093070108958FEF80930701F4
:103C1000089580910601262F30E0280F311D2F3F97
:103C2000310524F4680F6093060108958FEF8093A7
:103C30000601089580910501262F30E0280F311DDF
:103C40002F3F310524F4680F6093050108958FEF2D
:103C500080930501089580910401262F30E0280FFC
:103C6000311D2F3F310524F4680F6093040108953E
:103C70008FEF809304010895833011F128F481308F
:103C800049F0823091F00895853081F120F186303D
:103C9000C1F1089580910603681720F4861B809374
:103CA000060308951092060308958091080168178D
:103CB00020F4861B8093080108951092080108954E
:103CC00080910701681720F4861B809307010895EF
:103CD00010920701089580910601681720F4861B51
:103CE00080930601089510920601089580910501C0
:103CF000681720F4861B8093050108951092050132
:103D0000089580910401681720F4861B80930401B4
:103D100008951092040108950F931F93873208F0BD
:103D20004DC08E3108F093C0803109F47DC008F594
:103D3000873009F46BC068F4863009F0A3C0809125
:103D40000203817F8E7F8093020381E080931003C2
:103D50009AC08B3009F48FC08E3009F093C08091E7
:103D6000020382FB222720F991E0922790FB82F93F
:103D700064C0863109F47FC088F4813109F082C0C3
:103D80000E94E91280913E0387FB222720F991E0EF
:103D9000922790FB87F980933E036DC0893109F427
:103DA0006AC08B3109F06EC08091020381FB22272B
:103DB00020F991E0922790FB81F93FC0883309F404
:103DC0005AC050F4893209F458C0853309F455C0FB
:103DD000873209F452C056C0833409F44EC028F427
:103DE0008A3308F44FC0895333C0883409F04AC07D
:103DF0000E94E9120FEF13ED20E301501040204024
:103E0000E1F700C000000E945A1B35C080910203F8
:103E1000982F9095917090FB80F9809302039111F7
:103E20002AC0897F877F10C08091020383FB2227ED
:103E300020F991E0922790FB83F980930203992364
:103E4000D1F08091020381608093020314C08D51F0
:103E500041E050E060E070E08A019B0104C0000F87
:103E6000111F221F331F8A95D2F7C901B8010E9482
:103E7000C1160E94E91281E006C061E070E080E0B6
:103E800090E0F5CF80E01F910F91089580E00895B4
:103E900080E008958E518A3030F4E82FF0E0E45449
:103EA000FE4F8081089580E00895CF93C82F8091C0
:103EB0001003813079F018F08230E9F185C0E0918B
:103EC0000201F09103018081813169F0823209F0B1
:103ED0007DC009C0E0910201F09103018081813130
:103EE00011F0823261F48C2F0E94461F811104C0B0
:103EF0008C2F0E948C1E1DC081E090E01AC08C2F78
:103F00000E94481F811114C0C43179F048F4CB30AD
:103F100079F0C03109F05EC082E08093100308C0E0
:103F2000C93219F0C83321F055C01092100352C0A5
:103F300081E0817051C0C93279F108F5C43161F175
:103F4000A0F4C73009F044C01092060384E18093C6
:103F50000801C09307018CE38093060188E08093F9
:103F6000050188E28093040133C082EE8C0F863015
:103F700078F58C2F0E944A1F80930F0329C0CE34FE
:103F8000E9F020F4CB3421F56AE013C0C13579F0B3
:103F9000C235F1F461E00DC080910F03882319F060
:103FA00010920F0315C081E08093100315C061E0EB
:103FB00006C080910F030E94C61D0AC06AE080916E
:103FC0000F030E943C1E04C01092100380E004C046
:103FD00081E002C080E0ADCFCF91089580913103A0
:103FE00008950F931F93CF93DF9300D01F92CDB707
:103FF000DEB78C010E945222823011F0843021F50C
:1040000084E089831B830A8382E08093E9008FEF39
:104010009091E800815095FD06C095ED9A95F1F7D5
:1040200000008111F5CF8091E80085FF0DC040E0D0
:1040300050E063E070E0CE0101960E946F22809113
:10404000E8008E778093E8000F900F900F90DF913B
:10405000CF911F910F910895CF93DF9300D01F92BE
:10406000CDB7DEB720914403243031F523E0298316
:10407000805891099B838A8382E08093E9008FEFC7
:104080009091E800815095FD06C095ED9A95F1F765
:1040900000008111F5CF8091E80085FF0DC040E060
:1040A00050E063E070E0CE0101960E946F228091A3
:1040B000E8008E778093E8000F900F900F90DF91CB
:1040C000CF910895CF93DF93EC010E94522282306A
:1040D00011F08430F9F482E08093E9009FEF809141
:1040E000E800915085FD06C085ED8A95F1F7000046
:1040F0009111F5CF8091E80085FF0CC040E050E0C1
:1041000066E070E0CE010E946F228091E8008E7719
:104110008093E800DF91CF910895CF93DF93EC0176
:104120000E945222823011F08430D9F5809113011F
:10413000882339F080913E0387FF03C060E282E06C
:1041400002C068E081E08093E9008FEF9091E80081
:10415000815095FD06C095ED9A95F1F7000081110B
:10416000F5CF8091E80085FF1CC08091130181117B
:1041700005C040E050E068E070E003C070E040E05F
:1041800050E0CE010E946F228091E8008E778093EC
:10419000E80080E2FE01A1E1B3E001900D928A9572
:1041A000E1F7DF91CF91089580914303811109C018
:1041B0000E9404240E9461248091E2008460809324
:1041C000E2000895109243030895089508950C9411
:1041D000C41A42E061EC81E00E947E2342E261EC7D
:1041E00082E00C947E2380914603833009F453C00F
:1041F00030F4813071F0823009F48CC008958A3037
:1042000009F478C08B3009F45EC0893009F09AC097
:1042100020C080914503813A09F094C08091E80064
:10422000877F8093E8008091490390914A03892B0E
:1042300021F460E281E193E003C060E080E090E07F
:1042400070E00E94BA228091E8008B778093E800AA
:10425000089580914503813209F074C0809149032B
:1042600090914A03029708F06DC08091E800877F23
:104270008093E8008091E80082FD05C080914403AE
:104280008111F8CF5FC08091F1008093310380915C
:10429000E8008B7753C080914503813A09F052C002
:1042A0008091490390914A03892B09F04BC080917A
:1042B000E800877F8093E8008091E80080FFFCCFD2
:1042C0008091130136C0809145038132D9F58091E8
:1042D000490390914A03892BA9F58091E800877FD3
:1042E0008093E8000E94B3238091470380931301D9
:1042F0000C94E91280914503813221F58091E80008
:10430000877F8093E8000E94B323809148038093C5
:104310003203089580914503813AA1F48091E80029
:10432000877F8093E8008091E80080FFFCCF809138
:1043300032038093F1008091E8008E778093E8004B
:104340000C94B323089584B7877F84BF0FB6F89485
:10435000A895809160008861809360001092600051
:104360000FBE80E880936100109261000E94F40CFF
:104370000E9404240E9461248091E2008460809362
:10438000E20078940E94F0260E94FA0C89E091E005
:104390000E94870C80914403853069F40E947C1A46
:1043A000809142038823B1F30E94AD1A882391F3D0
:1043B0000E945922EFCF0E94000DECCF0C94E02117
:1043C000292F332723303105C9F064F4213031051A
:1043D00081F02230310509F04CC08BE390E02EE7EC
:1043E00035E04BC02132310521F12232310589F10E
:1043F00040C082E190E029EB35E03FC09927813051
:10440000910571F02CF4892BA1F5EAE7F5E00DC0D8
:104410008230910541F0039761F5E4E4F5E005C0D1
:10442000E2E6F5E002C0EAE4F5E0849190E09F0165
:1044300024C06115710541F061307105D1F489E046
:1044400090E029EA35E019C089E090E020E935E004
:1044500014C06115710541F06130710551F480ECB3
:1044600090E02BEC35E009C080E490E02BE836E0EA
:1044700004C080E090E020E030E0FA013183208346
:1044800008950895CF93C82F0E944122C09333030B
:10449000CF91089580914403843011F081E0089514
:1044A00082E0089580913303811102C00C944A2266
:1044B000089580E189BD82E189BD09B400FEFDCF88
:1044C0008091D8008F7D8093D8008091E000826039
:1044D0008093E0008091E00081FDFCCF0895CF92B1
:1044E000DF92EF92FF920F931F93CF93DF93EC0134
:1044F0008B016A010E94D223811133C0C114D104FF
:1045000039F0F60180819181081B190BC80FD91F62
:10451000E12CF12C0115110519F18091E80085FDC0
:1045200016C08091E8008E778093E800C114D10412
:1045300049F0F60180819181E80EF91EF182E08256
:1045400085E00FC00E94D223882321F30AC08991FD
:104550008093F10001501109FFEFEF1AFF0ADACF43
:1045600080E0DF91CF911F910F91FF90EF90DF904E
:10457000CF90089520914B0330914C0326173707B5
:1045800048F06115710539F42091E8002E772093E9
:10459000E80001C0B90140E061157105A9F1209161
:1045A0004403222309F443C0253009F442C020917A
:1045B000E80023FD40C02091E80022FD32C0209198
:1045C000E80020FFE9CF4091F3002091F20030E0B5
:1045D000342BFC01CF016115710559F028303105EC
:1045E00040F481918093F100615071092F5F3F4F3A
:1045F000F1CF41E02830310509F040E02091E8009A
:104600002E772093E800C8CF4111C9CF0AC080910E
:104610004403882361F0853061F08091E80083FDD8
:104620000AC08091E80082FFF2CF80E0089582E026
:10463000089583E0089581E0089520914B0330911F
:104640004C032617370748F06115710539F420919E
:10465000E8002E772093E80001C0B901FC0120E0BA
:104660006115710591F180914403882309F440C0DC
:10467000853009F43FC08091E80083FD3DC0809102
:10468000E80082FD2FC08091E80080FFE9CF2091F3
:10469000F3008091F20090E0922B6115710559F0C2
:1046A0008830910540F424912093F10031966150B7
:1046B00071090196F2CF21E0089709F020E080917E
:1046C000E8008E778093E800CBCF2111CCCF0AC0D1
:1046D00080914403882361F0853061F08091E80087
:1046E00083FD0AC08091E80082FFF2CF80E0089548
:1046F00082E0089583E0089581E00895982F97302F
:1047000058F59093E900981739F07091EC002091DA
:10471000ED005091F00003C0242F762F50E021FFD0
:1047200019C03091EB003E7F3093EB003091ED00EB
:104730003D7F3093ED003091EB0031603093EB0022
:104740007093EC002093ED005093F0002091EE0068
:1047500027FF07C09F5FD3CF8F708093E90081E070
:10476000089580E008958091450387FF11C08091EE
:10477000E80082FD05C0809144038111F8CF11C08B
:104780008091E8008B770BC080914403882349F027
:104790008091E80080FFF8CF8091E8008E778093C9
:1047A000E80008952091E4003091E50095E64091FD
:1047B000EC00842F817040FF22C08091E80080FDD2
:1047C0001CC080914403882391F0853091F0809142
:1047D000EB0085FD10C04091E4005091E5004217C8
:1047E000530729F39A01915011F784E0089582E06C
:1047F000089583E0089581E0089580E00895409150
:10480000E80042FFDECF08950E9472240E947A24BD
:10481000E0EEF0E0808181608083E8EDF0E080816F
:104820008F77808319BCA7EDB0E08C918E7F8C933D
:1048300080818F7E80831092430308950F931F938E
:10484000CF93DF930E9472240E947A24C8EDD0E0B7
:1048500088818F77888388818068888388818F7D2D
:10486000888319BC109244031092400310924203B3
:104870001092410300EE10E0F80180818B7F80836D
:1048800088818160888342E060E080E00E947E232E
:10489000E1EEF0E080818E7F8083E2EEF0E08081C7
:1048A00081608083808188608083F80180818E7F31
:1048B0008083888180618883DF91CF911F910F91E0
:1048C0000895E8EDF0E080818F7E8083E7EDF0E0F1
:1048D00080818160808384E082BF81E08093430394
:1048E0000C941E24E8EDF0E080818E7F808310928E
:1048F000E20008951092DA001092E10008951F92EC
:104900000F920FB60F9211242F933F934F935F9303
:104910006F937F938F939F93AF93BF93EF93FF9387
:104920008091E10082FF0BC08091E20082FF07C00E
:104930008091E1008B7F8093E1000E94EF268091BF
:10494000DA0080FF1FC08091D80080FF1BC08091DB
:10495000DA008E7F8093DA008091D90080FF0DC04D
:1049600080E189BD82E189BD09B400FEFDCF81E00F
:10497000809344030E94D42005C019BC10924403C4
:104980000E94E2208091E10080FF19C08091E20046
:1049900080FF15C08091E2008E7F8093E2008091BD
:1049A000E20080618093E2008091D8008062809371
:1049B000D80019BC85E0809344030E94E6208091D2
:1049C000E10084FF30C08091E20084FF2CC080E1D0
:1049D00089BD82E189BD09B400FEFDCF8091D80078
:1049E0008F7D8093D8008091E1008F7E8093E100DD
:1049F0008091E2008F7E8093E2008091E2008160EE
:104A00008093E20080914003882311F084E007C086
:104A10008091E30087FD02C081E001C083E08093C4
:104A200044030E94E7208091E10083FF29C0809128
:104A3000E20083FF25C08091E100877F8093E10041
:104A400082E080934403109240038091E1008E7FC6
:104A50008093E1008091E2008E7F8093E20080915C
:104A6000E20080618093E20042E060E080E00E942A
:104A70007E238091F00088608093F0000E94E52002
:104A8000FF91EF91BF91AF919F918F917F916F9126
:104A90005F914F913F912F910F900FBE0F901F90FC
:104AA00018951F920F920FB60F9211242F933F93D8
:104AB0004F935F936F937F938F939F93AF93BF9326
:104AC000CF93DF93EF93FF93C091E900CF70809174
:104AD000EC00D82FD17080FDD0E81092E9008091D1
:104AE000F000877F8093F00078940E9495251092C3
:104AF000E9008091F00088608093F000CD2BCF70AA
:104B0000C093E900FF91EF91DF91CF91BF91AF91F9
:104B10009F918F917F916F915F914F913F912F91D5
:104B20000F900FBE0F901F9018951F93CF93DF9398
:104B3000CDB7DEB7AA970FB6F894DEBF0FBECDBFD4
:104B4000E5E4F3E088E08E0F9091F10091938E13ED
:104B5000FBCF0E94F3208091E80083FF28C1809161
:104B6000450390914603492F50E04A30510508F023
:104B70001EC1FA01E755FF4F0C941F27803821F022
:104B8000823809F014C108C080914103909142031A
:104B9000992389F082600FC0809149038F7087301C
:104BA00008F005C18093E9008091EB0085FB882720
:104BB00080F91092E9009091E800977F9093E800C7
:104BC0008093F1001092F100D0C0282F2D7F09F0C2
:104BD000EEC0882319F0823061F0E9C0809147036C
:104BE000813009F0E4C0933009F080E08093420303
:104BF0002EC08091470381112AC0809149038F7094
:104C00002FEF280F263008F0D2C08093E9002091C2
:104C1000EB0020FF1CC0933021F48091EB008062F8
:104C200014C09091EB0090619093EB0021E030E094
:104C3000A90102C0440F551F8A95E2F74093EA008C
:104C40001092EA008091EB0088608093EB00109254
:104C5000E9008091E800877F8093E8000E94B323F9
:104C6000A6C08111A4C0109147031F778091E30073
:104C70008078812B8093E3008091E800877F809388
:104C8000E8000E94B3238091E80080FFFCCF809170
:104C9000E30080688093E300111102C082E001C04C
:104CA00083E08093440383C08058823008F07FC043
:104CB00080914703909148038C3D53E0950779F527
:104CC00083E08A838AE289834FB7F894DE011396E2
:104CD00020E03EE051E2E32FF0E050935700E491F2
:104CE00020FF03C0E295EF703F5FEF708E2F90E0E2
:104CF000EA3010F0C79601C0C0968D939D932F5F48
:104D0000243149F74FBF8091E800877F8093E80006
:104D10006AE270E0CE0101960E94BA2215C060914D
:104D2000490370914A03AE014F5F5F4F0E94DE213D
:104D3000BC01892BE1F19091E800977F9093E80006
:104D400089819A810E941D238091E8008B7780934E
:104D5000E8002DC0803859F58091E800877F809366
:104D6000E800809140038093F1008091E8008E7705
:104D700073CF81111CC0909147039230C0F4809191
:104D8000E800877F8093E800909340030E94B3235C
:104D900080914003811106C08091E30087FD02C02D
:104DA00081E001C084E0809344030E94E920809167
:104DB000E80083FF0AC08091E800877F8093E800C5
:104DC0008091EB0080628093EB00AA960FB6F89476
:104DD000DEBF0FBECDBFDF91CF911F910895089523
:104DE000CF93809144038823A1F0C091E900CF7054
:104DF0009091EC00892F817090FD80E8C82B109273
:104E0000E9008091E80083FD0E949525CF70C09352
:104E1000E900CF91089597FB072E16F4009407D070
:104E200077FD09D00E94252707FC05D03EF4909518
:104E300081959F4F0895709561957F4F0895EE0F6E
:104E4000FF1F0590F491E02D0994AA1BBB1B51E1B3
:104E500007C0AA1FBB1FA617B70710F0A61BB70BEA
:104E6000881F991F5A95A9F780959095BC01CD018F
:104E70000895F999FECF92BD81BDF89A992780B522
:104E80000895A8E1B0E042E050E00C946D27262F91
:104E9000F999FECF92BD81BDF89A019700B4021630
:104EA00039F01FBA20BD0FB6F894FA9AF99A0FBEDE
:104EB00008950396272F0E9448270E944727252FF1
:104EC0000E944827242F0C9448270196272F0E94E0
:104ED00048270C944727DC01CB01FC01F999FECF50
:104EE00006C0F2BDE1BDF89A319600B40D92415072
:0A4EF0005040B8F70895F894FFCF82
:104EFA002000DF0228083C0714EE1F8D2062202CB8
:104F0A0020F11F01000D010D020D030D040D050D09
:104F1A00000C010C020C030C040C050C000B010B19
:104F2A00020B030B040B050B000A010A020A030A0F
:104F3A00040A050A00090109020903090409050905
:104F4A000008010802080308040805080007010709
:104F5A0002070307040705070006010602060306FF
:104F6A0004060506000501050205030504050505F5
:104F7A0000040104020403040404050400030103F9
:104F8A0002030303040305030002010202020302EF
:104F9A0004020502000101010201030104010501E5
:104FAA0000000100020003000400050001020304DE
:064FBA00050607080900CE
:00000001FF
